S00B00006173702E73726563D5
S31508000000981800209501000879020008790200086E
S3150800001079020008790200087902000879020008C6
S31508000020790200087902000879020008F903000835
S31508000030790200087902000879020008F702000828
S31508000040F7020008F7020008F7020008F70200089E
S31508000050F7020008F7020008F7020008F70200088E
S31508000060F7020008F7020008F7020008F70200087E
S31508000070F7020008F7020008F7020008F70200086E
S31508000080F7020008F7020008F7020008F70200085E
S31508000090F7020008F7020008F7020008F70200084E
S315080000A0F7020008F7020008F7020008F70200083E
S315080000B0F7020008F7020008F7020008F70200082E
S315080000C0F7020008F7020008F7020008F70200081E
S315080000D0F7020008F7020008F7020008F70200080E
S315080000E0F7020008F7020008F7020008F7020008FE
S315080000F0F7020008F7020008F7020008F7020008EE
S31508000100F7020008F7020008F7020008F7020008DD
S31508000110F7020008F7020008F7020008F7020008CD
S31508000120F7020008F7020008F7020008F7020008BD
S31508000130F7020008F7020008F7020008F7020008AD
S31508000140F7020008F7020008F7020008F70200089D
S31508000150F7020008F7020008F7020008F70200088D
S31508000160F7020008F7020008F7020008F70200087D
S31508000170F7020008F7020008F7020008F70200086D
S31508000180F7020008F7020008F7020008F70200085D
S31508000190F702000871B619484FF47001026842EA7E
S315080001A0010202604FF040401549086015484FF4B7
S315080001B00271026842EA01020260134800B18047F0
S315080001C04FF000001149124A914204D2086001F129
S315080001D004019142FAD30F490F4A914208D20F4BB4
S315080001E00868186001F1040103F104039142F7D38A
S315080001F00B4800B1804703F0F7F9FEE788ED00E009
S3150800020034EF00E014ED00E0A92100080800002002
S31508000210A0330020986B0008A06B0008000000209F
S31508000220000000002DE9F05FEFF3148010F0040FD2
S3150800023001D02DED108A03B4A4480168C1F818D07E
S31508000240DFF88CE2C1F81CE0F4E018BC13F0040FE8
S3150800025001D0BDEC108ABDE8F05F887B10F0040F72
S3150800026008D00869004205D09A490868004201D0BA
S3150800027099480047704700BFEFF31382C2B9EFF3FE
S315080002801180102814D01EF0040F08D0EFF309834C
S3150800029023E9014083F3098801B5184601E001B551
S315080002A06846EFF305838D4951F8232090473DE0D2
S315080002B01EF0040F08D0EFF3098323E9014083F306
S315080002C0098801B5184601E001B56846EFF30583CC
S315080002D0824951F82320904771B60ABC13F0040FDF
S315080002E000D105E0EFF3098202F1080282F30988DA
S315080002F081F311881847EFF311801EF0040F08D018
S31508000300EFF3098323E9014083F3098801B5184609
S3150800031001E001B56846EFF30583704951F82320DB
S315080003206F4951F823E08EF31188904771B60ABCDD
S3150800033013F0040F00D108E06A48026842B9EFF3E7
S31508000340098202F1080282F3098881F311881847A5
S315080003504FF000010160102181F311884FF001016F
S315080003606148016000216148016061484FF0807171
S31508000370EFF3098222E90300183A82F309886FF03D
S3150800038002000047514801685A480268DAB15A48DB
S315080003900268914217D0019A12F0100F01D12DED83
S315080003A0108A0CB42DE9F00FC1F818D0DFF84CE12B
S315080003B0C1F81CE03EE0BDE8F00F0CBC12F0100FCF
S315080003C001D1BDEC108A887B10F0040F0DD00869A6
S315080003D058B14049086840B14949086810F0010F0A
S315080003E001D017EE903A03F033FBEFF3148323F0B2
S315080003F0040383F3148800DF71B6EFF30980203015
S31508000400B0E8024080F309884FF0000036490860DA
S31508000410002181F3118870473A48016881F30888FA
S31508000420102181F3118861B64FF0020080F3148819
S31508000430BFF36F8FEFF3148323F0040383F3148859
S315080004402D480168214A116019B1D1F818D0D1F8A0
S315080004501CF04FF0000080F31488BFF36F8F4FF045
S31508000460000410251F4E204F3C6084F3118885F345
S31508000470118830680028F8D034604FF0020080F305
S315080004801488BFF36F8F4FF001023A601748046073
S31508000490D6E74FF0000080F31488BFF36F8F1A4831
S315080004A000474FF00000104C206080F31188DFF8F9
S315080004B05CE08A6850689168084700BFA23800283F
S315080004C000DC704764380028FCDC7047883300205D
S315080004D04B0200088C330020513A0008B464000827
S315080004E054660008F8320020F0320020EC32002072
S315080004F0840300087C330020F4320020B703000888
S3150800050034EF00E00468000829360008AD3F00080B
S3150800051010B50D4B82B05C6A04F020FA00280BDB9C
S315080005200A49062001F010F809492246062002B0B9
S31508000530BDE8104001F008B80090064B0649942221
S31508000540032001F077F8EBE700000140C0590008E6
S31508000550D0590008DC5F0008B45900082DE9F04FAF
S315080005609C4B044693E8070091B005AB83E8070067
S3150800057004F0F4F90028C0F22581661E10AB03EBDF
S315080005808603002553F82C3CDFF88CA2DFF88C9202
S31508000590DFF88CB2DFF88C8203932F46039B009317
S315080005A001352B4622465946052000F0CDFF049713
S315080005B0049BDAF80020934205D2049B0133049386
S315080005C0049B9342F9D319F8063009F80670533B91
S315080005D0272BE3D801A252F823F000BF59070008D9
S315080005E09D0500089D0500089D0500089D05000855
S315080005F09D05000881070008290700089D050008D1
S315080006009D0500089D0500089D0500089D05000834
S315080006109D0500089D0500089D0500089D05000824
S3150800062001070008D50600089D0500089D05000875
S315080006309D0500089D0500089D0500089D05000804
S315080006409D0500089D0500089D0500089D050008F4
S315080006509D0500089D0500089D050008B1060008CF
S315080006609D0500089D0500089D0500089D050008D4
S315080006709D0500088D0600087D06000822464146AD
S31508000680052000F061FF02EE101F87E72246524957
S31508000690062000F059FF04F02DF90028BFF67EAFBA
S315080006A000904E4B4E49BB22032000F0C3FF75E76E
S315080006B022464C49062000F047FF03F0DBFD0028E0
S315080006C0BFF66CAF0090484B4549AF22032000F0B7
S315080006D0B1FF63E722464549062000F035FF03F0DF
S315080006E065FC00285EDB02223D4C414B089208A9B6
S315080006F0AC2200200A940B920C9301F0BDF8FEE799
S3150800070022463C49062000F01FFF42F2107003F013
S31508000710DFFF0028BFF642AF0090374B3049B722BB
S31508000720032000F087FF39E704F0FAFD002841DBD3
S3150800073022464146052000F007FF02EE101F04F08E
S315080007400FFE0028BFF62AAF00902C4B2449CA2278
S31508000750032000F06FFF21E722462949062000F012
S31508000760F3FE42F2107003F0CBFD0028BFF616AF79
S315080007700090244B1A49B322032000F05BFF0DE7D3
S3150800078022462149062000F0DFFE04F0E7F800289B
S31508000790BFF604AF00901D4B1149BF22032000F09D
S315080007A049FFFBE600901A4B0D49AB22032000F0E7
S315080007B041FF98E70090174B0949C722032000F02C
S315080007C039FFB5E70090114B0549A122032000F037
S315080007D031FFD2E630580008C85F0008CC5F000831
S315080007E0B4590008905F0008945F00087C5F000811
S315080007F08C5F0008B45F0008B85F00080C6000084A
S31508000800A05F0008A45F0008D85F0008DC5F000846
S31508000810805F000800600008E8300020E43000200F
S315080008205C5F0008E85F000830B503468DB00A46ED
S3150800083005460C460520194900F086FE0023184A8D
S315080008400393039B1268934205D2039B01330393D8
S31508000850039B9342F9D32B0401D40DB030BD224635
S315080008601049062000F070FE03F0A0FB00280CDB00
S3150800087002220D4C0D4B049204A9E1220020069495
S315080008800792089300F0F8FFFEE70090084B064928
S31508000890E022032000F0CEFEEAE700BF1860000859
S315080008A0E03000207C5F0008B45900088C5F00081F
S315080008B0805F000870B502468AB03A4904460520AA
S315080008C000F042FE04F0CEFD012803D0364904208C
S315080008D000F03AFE04F0DCFD012803D03349042079
S315080008E000F032FE04F0C6FD054604F0CBFD0646D0
S315080008F004F072F82A4633462D490090062000F087
S3150800090023FE204604F000FE0546204604F016FEA7
S315080009102A4603462749062000F016FE204604F01C
S315080009200DFEA8B12449052000F00EFE02F06CFE6B
S3150800093000281BDB0222214C214B029202A94FF40C
S315080009408072002004940592069300F095FFFEE756
S3150800095002A804F0B1FC00281ADB4FF40041029803
S3150800096003F06AFF002809DB0AB070BD0090154B3A
S315080009701249FF22032000F05DFEDBE70090124BD0
S315080009800E494FF48272032000F054FE0AB070BD7F
S3150800099000900E4B094940F20312032000F04AFE6C
S315080009A0DBE700BF3C58000868580008985800085C
S315080009B0C8580008F05800080C590008B45900082F
S315080009C08C5F000830590008505900083C59000847
S315080009D000B5092083B004F03BFC002817DB0A2089
S315080009E004F036FC00281FDB0B2004F031FC00283D
S315080009F002DB03B05DF804FB0090104B104940F28F
S31508000A001312032000F016FE03B05DF804FB0090F5
S31508000A100C4B0B4940F21112032000F00BFE0A2082
S31508000A2004F016FC0028DFDA0090074B04494FF45F
S31508000A308972032000F0FEFDD6E700BF9C59000826
S31508000A40B45900086C5900088459000800B50920F3
S31508000A5083B004F0FDFB002817DB0A2004F0F8FB3E
S31508000A6000281FDB0B2004F0F3FB002802DB03B091
S31508000A705DF804FB0090104B10494FF49072032068
S31508000A8000F0D8FD03B05DF804FB00900C4B0B4951
S31508000A904FF48F72032000F0CDFD0A2004F0D8FB36
S31508000AA00028DFDA0090074B044940F21F120320A2
S31508000AB000F0C0FDD6E700BF9C590008B4590008ED
S31508000AC06C590008845900082DE9F041012192B0BB
S31508000AD004467F2000F0B2FF0028C0F2DD812246DE
S31508000AE0CC49052000F030FD022001F00FF8041E65
S31508000AF0C0F2C5814FF4A261022001F08BF90028EB
S31508000B00C0F2B481C44CC54B236006A804F0B0F803
S31508000B100028C0F2758100230593059B22689A4236
S31508000B2005D9059B01330593059B9342F9D307A87D
S31508000B3004F09EF80028C0F22C810698079AB84956
S31508000B40B84B121A0520B3FBF2F39A0823600A6021
S31508000B5003F096F90028C0F21381052003F01EFC65
S31508000B600028C0F20481DFF80083AF4FAF4C01259F
S31508000B70022601220DF10F01022001F07DF800285E
S31508000B80C0F2E3800120FFF7C3FC9DF80F30A3F104
S31508000B902F024B2A00F2BE8001A151F822F000BFB5
S31508000BA0E5120008150D00086F0B0008DF12000893
S31508000BB0D9120008150D0008150D0008150D0008B6
S31508000BC0150D0008150D0008150D0008150D00086F
S31508000BD0150D0008AB1200087D1200084F12000818
S31508000BE0150D0008150D0008151200085D110008FE
S31508000BF01D110008150D0008150D0008150D000833
S31508000C00F5100008150D0008150D0008150D00084B
S31508000C10150D0008150D0008150D0008150D00081E
S31508000C20150D0008150D0008150D0008150D00080E
S31508000C30EB100008150D0008150D0008D10C00086A
S31508000C40B110000883100008EB100008EB1000082C
S31508000C50150D0008150D0008150D0008150D0008DE
S31508000C60150D0008150D0008571000082910000872
S31508000C70FF0F0008EB100008EB100008150D000820
S31508000C80150D0008150D0008150D0008150D0008AE
S31508000C90150D0008D30F0008A70F0008150D00084A
S31508000CA0150D0008150D0008830F0008250F00080C
S31508000CB0EB100008F90E0008CD0E0008AB0E000870
S31508000CC0C10D0008A50D0008EB100008EB10000880
S31508000CD008A803F0F9FF002807DA0090544B4FF4F0
S31508000CE0FD722146032000F0A5FC09A803F0ECFFDD
S31508000CF0002807DA00904F4B40F2FB1221460320EA
S31508000D0000F098FC099B089A4B49052000F01CFC4A
S31508000D109DF80F30032B02D0512B7FF42AAF474999
S31508000D20052000F011FC02F06FFC002816DB0222F9
S31508000D303E4C434B0A920AA940F2252200200C9405
S31508000D400D920E9300F098FDFEE700903B4640F2A8
S31508000D5087122146032000F06DFC13E70090394BFB
S31508000D6032494FF40972032000F064FCDFE7009073
S31508000D70354B2E4940F28112032000F05BFCF2E667
S31508000D800090324B29494FF4C072032000F052FC00
S31508000D90E3E600902E4B25494FF4BA72032000F083
S31508000DA049FCCAE62A462B49062000F0CDFB01215C
S31508000DB0304603F0E1FC002817DB9DF80F30A9E761
S31508000DC02A462549062000F0BFFB304603F0E6FA1E
S31508000DD00028F2DA0090214B4FF4E27221460320F4
S31508000DE000F028FC9DF80F3094E700901C4B40F269
S31508000DF0DB122146032000F01DFC9DF80F3089E721
S31508000E000090184B09494FF4B972032000F012FC00
S31508000E1081E600BF145A0008E830002040420F005F
S31508000E20E03000200084D717F85A0008B4590008A3
S31508000E30685E00087C5E0008905E0008E85E0008B0
S31508000E408C5F000830590008E45A0008D05A000898
S31508000E50BC5A0008185D0008705C0008805C000831
S31508000E60305D0008A85A0008E43000200090C64B00
S31508000E70C64940F24512032000F0DCFB42E663B2A5
S31508000E8029333FF437AE00F0F5FB23120246C0497A
S31508000E90032000F059FB2DE60090BE4BBB4940F2FB
S31508000EA03512032000F0C6FB19E601217F2000F069
S31508000EB0C5FD002881DA0090B64B40F2052221468E
S31508000EC0032000F0B7FB9DF80F3023E72A46B24906
S31508000ED0062000F039FB304603F046FB0028BFF633
S31508000EE06CAF0090AD4B40F2D3122146032000F0C0
S31508000EF0A1FB9DF80F300DE72A46A949062000F008
S31508000F0023FB304603F0A2F80028BFF656AF009040
S31508000F10A44B40F2AD122146032000F08BFB9DF84E
S31508000F200F30F7E6A049062000F00EFB092004F072
S31508000F3055F9002807DA00909C4B40F2E312214647
S31508000F40032000F077FB0A2004F048F9002807DAA6
S31508000F500090974B4FF4F2722146032000F06AFB8B
S31508000F600B2004F03BF90028BFF627AF0090914B01
S31508000F7040F2E5122146032000F05CFB9DF80F3095
S31508000F80C8E601213F2000F059FD0028BFF615AF3D
S31508000F900090894B40F209222146032000F04AFBC3
S31508000FA09DF80F30B6E62A468449062000F0CCFAAA
S31508000FB0304603F03DFB0028BFF6FFAE0090804B9D
S31508000FC040F2D7122146032000F034FB9DF80F307B
S31508000FD0A0E62A467B49062000F0B6FA304603F01A
S31508000FE07FFA0028BFF6E9AE0090774B40F2CF12A1
S31508000FF02146032000F01EFB9DF80F308AE6734950
S31508001000062000F0A1FA012003F038FF0028BFF6F9
S31508001010D4AE00906E4B40F2E9122146032000F050
S3150800102009FB9DF80F3075E66A49062000F08CFA30
S3150800103041F28831012004F029F80028BFF6BDAE38
S315080010400090654B40F2F1122146032000F0F2FAB7
S315080010509DF80F305EE62A466049062000F074FACD
S31508001060304602F00DFF0028BFF6A7AE00905C4B95
S315080010704FF4D1722146032000F0DCFA9DF80F30B8
S3150800108048E62A465749062000F05EFA022130460D
S3150800109003F072FB0028BFF690AE0090524B40F268
S315080010A0DF122146032000F0C5FA9DF80F3031E61D
S315080010B02A464E49062000F047FA304603F0C6F99C
S315080010C0031E07DB2A464A49052000F03DFA9DF82B
S315080010D00F301FE600934FF4E472464B2146032077
S315080010E000F0A8FA9DF80F3014E608EB050202F89E
S315080010F0013C11E62A464049062000F025FA04A9D3
S31508001100304603F071F800281DDB049B3B492A464C
S31508001110052000F019FA9DF80F30FBE5384906203E
S3150800112000F012FA012003F013FF0028BFF645AEBF
S315080011300090344B40F2ED122146032000F07AFA73
S315080011409DF80F30E6E500902F4B40F2BD12214680
S31508001150032000F06FFA9DF80F30DBE52B490620D7
S3150800116000F0F2F9012003F0F7FF0028BFF625AEDC
S315080011700090274B40F2F5122146032000F05AFA58
S315080011809DF80F30C6E500BF605A0008B45900083C
S31508001190385A0008DC590008D85C0008E85C0008E2
S315080011A0645B0008745B0008785D0008945D0008BD
S315080011B0AC5D0008C45D0008AC5E0008F85C000879
S315080011C0085D0008B85C0008C85C0008DC5D00081B
S315080011D0E85D00081C5E0008305E00081C5B00081D
S315080011E02C5B0008485D0008605D0008905C0008FC
S315080011F0345F0008A05C0008385C0008185F000827
S31508001200FC5D0008085E0008505C0008485E00089F
S31508001210545E00082A463649062000F095F93046FD
S3150800122002F080FE031E07DB2A463249052000F03D
S315080012308BF99DF80F306DE500934FF4D3722E4B62
S315080012402146032000F0F6F99DF80F3062E52A469C
S315080012502A49062000F078F90921304602F070FF85
S315080012600028BFF6AAAD0090254B40F2B1122146E0
S31508001270032000F0DFF99DF80F304BE52A46214997
S31508001280062000F061F90A21304602F059FF0028CD
S31508001290BFF693AD00901C4B40F2B51221460320D1
S315080012A000F0C8F99DF80F3034E52A46174906209C
S315080012B000F04AF90B21304602F042FF0028BFF63B
S315080012C07CAD0090124B40F2B9122146032000F083
S315080012D0B1F99DF80F301DE50325042649E40225DA
S315080012E0032646E420210B4801F044FA65E500BFD1
S315080012F03C5B0008005F00084C5B0008845B000844
S31508001300A05B0008C05B0008DC5B0008FC5B00080B
S31508001310185C0008000002402DE9F04FB0FBF1F41C
S3150800132085B001FB140004AE105C06F80C0DDDF860
S315080013303880DDF83C90109D1F46B64623460124AA
S3150800134053B1B3FBF1F001FB10330134D35C0EF853
S31508001350013F0B2C0346F3D1B8F1000F13D02FB180
S31508001360013FB9F1000F0CD1A7420ED82D20A8478E
S31508001370344414F8010DA847B442FAD105B0BDE8C3
S31508001380F08F2D20A847A742F2D9B9F1000F14BF54
S315080013904FF0300B4FF0200BA2460AF1010A5846CF
S315080013A0A847BA45F9D3B8F1000FE1D0B9F1000F53
S315080013B0DED12D20A847DBE72DE9F0474C4FDFF8B3
S315080013C03491DFF8348184B004460D4616462078F9
S315080013D030B1252807D00134B04720780028F8D145
S315080013E004B0BDE8F0876078302837D00234002191
S315080013F0A0F13003092B4FF000030BD803EB83034E
S3150800140000EB430314F8010BA0F13002092AA3F1FB
S315080014103003F3D96C2804BF20780134642825D01A
S315080014200CD8252830D01DD958282FD06328CED1DE
S31508001430287805F1040AB0475546C8E7732830D01E
S3150800144049D975283AD10022286801910092029656
S315080014503A460A210435FFF75FFFB8E7A07801216D
S315080014600334C5E70028B2D1013CB0E72868002854
S3150800147005F1040532DB00220191009202963A46F4
S315080014800A21FFF749FFA2E7B047A0E7002228682C
S31508001490019100920296424610210435FFF73CFF5F
S315080014A095E72B681878043503F1010A00288ED0D1
S315080014B0B0471AF8010B0028FAD188E7782886D1B0
S315080014C0002228680191009202964A4610210435A6
S315080014D0FFF722FF7BE77028F2D078E70122019117
S315080014E00092029640423A460A21FFF715FF6EE738
S315080014F0506000085C6000083C6000080368012B27
S3150800150008D0022B05D10A4600F108010448FFF766
S3150800151053BF70470A4600F10C018068FFF74CBFBD
S315080015208860000810B582B002AB0A4643F8040D7D
S315080015300C4604481946FFF73FFF0A20A04702B0A9
S3150800154010BD00BF706000080EB470B58BB00FAE4A
S31508001550012456F8041B04910B78019602943BB1BA
S31508001560052C05D8252B0BD011F8013F002BF7D1F8
S3150800157002A900F081F90BB0BDE8704003B07047CE
S315080015804B78A3F13005092D01F1020205D812F8AE
S31508001590013BA3F130010929F9D96C2B0AD0642B38
S315080015A029D01ED8582B26D0632B0FD0B3B3137867
S315080015B01146D4E71378642B02F101011CD026D911
S315080015C0732B02D02ED8702B26D10A460AAB03EB12
S315080015D08403316843F8181C01340436137811461D
S315080015E0BDE7732BF2D002D8702BEFD0DFE7752B4F
S315080015F001D0782BDBD111460AAB621C03EB8404BD
S3150800160035680B7844F8185C04361446A7E7582B57
S31508001610F2D0632BD9D053B15378A0E712F8013C26
S31508001620511E9CE7752BE7D0782BE5D0F4E70A46E0
S31508001630F6E700BF2DE9F04788B08246109C0C4EAD
S3150800164020460F469046994600F014F82412039057
S31508001650012550466946CDF814900494CDF81880B3
S3150800166007970296009500F007F908B0BDE8F087DD
S31508001670A86000083A30C0B23A289ABF024B53F81D
S3150800168020000248704700BFD8600008C4610008FF
S3150800169038B5421E1E4B53F82240E268002322F456
S315080016A000520128E2602361E36063612CD001F0F7
S315080016B0FFFC184B184A194D1949A3FB003040097D
S315080016C04FF47A7303FB00F0A2FB00E2120E03FB51
S315080016D002F3A5FB0050C3EB10331B0103F5FA73A5
S315080016E0A1FB0313C3F3831343EA0213A360E3685E
S315080016F043F00C03E360636943F001036361E36845
S3150800170043F40053E36038BD01F0E8FCD1E700BFBD
S315080017108C6200081F85EB51D55204E9398EE338EF
S31508001720D34D6210054B064A06495A60012000222D
S31508001730D86019611A609A605A617047EC300020C7
S315080017400010014000440040022810B50ADC431E80
S31508001750064C03EB430304EB8304A160FFF798FFF1
S31508001760204610BD0024204610BD00BFEC300020E6
S31508001770F8B5451E6F000C4E7C1906EB84046368A9
S315080017801A6812060BD41B689B0600D4F8BD3D44A4
S3150800179006EB8506B068BDE8F84000F093BBA06884
S315080017A000F05AFB6368EEE7EC30002043681868DF
S315080017B010F080001CBF59600120704743681A6802
S315080017C0920646BF5868C0B24FF0FF30704700BF58
S315080017D0012908D0022905D14268D36843F02003BD
S315080017E0D360704770474268D36843F08003D3607C
S315080017F0704700BF012908D0022905D14268D3687D
S3150800180023F02003D360704770474268D36823F0FB
S315080018108003D360704700BF30B589B00123032227
S31508001820064D0093092469460520039302950494FE
S31508001830059200F021F809B030BD00BF9462000897
S3150800184070B40748074E084D084C0949094A002351
S3150800185033602B60236003600B60136070BC7047B5
S31508001860180400200C040020100400202004002086
S31508001870140400201C0400202DE9F0410F46EFF364
S315080018801183102B4AD0274910220B6082F3118846
S315080018904FF00008244B254A1B6812687A60012617
S315080018A086401E421CD03D46DFF89CC0204CDCF822
S315080018B000E00FCD04EB4E140FC495E80F000EF1AF
S315080018C001051F2D84E80F001A4A92BFCCF8005074
S315080018D00023CCF8003013681F2B18D80133136087
S315080018E0154B1B6836EA030309D1B8F1000F03D17B
S315080018F00C4B1B6883F311880020BDE8F08138463D
S315080019000E49FFF7FBFD0A2000F084FCEDE70C4AC0
S315080019100C49DCF8000013680860DFE74FF001089F
S31508001920B8E700BF08000020140400209433002004
S315080019300C0000200C0400201C04002015220008BE
S315080019401804002010040020200400202DE9F0418E
S315080019500546EFF31183102B37D0DFF8D480102219
S31508001960C8F8003082F31188DFF8C8C0DCF80070C8
S31508001970002F56D0DFF8C0E02B4CDEF8006004EBF1
S3150800198046140FCC0FC594E80F000136013F1F2EF1
S31508001990CCF80070CEF8006085E80F000BD9234B11
S315080019A000221868CEF800201A60D8F8003083F3B1
S315080019B01188BDE8F0811D4B002218681A60D8F816
S315080019C0003083F31188BDE8F081DFF868C0DCF8E1
S315080019D00070D7B1DFF860E0134CDEF8006004EB66
S315080019E046140FCC0FC594E80F000136013F1F2E91
S315080019F0CCF80070CEF8006085E80F0009D80B4BCC
S31508001A00002218681A60BDE8F0816FF02800BDE86A
S31508001A10F081064B00221868CEF800201A60BDE84F
S31508001A20F0816FF02800C0E70C00002018040020A1
S31508001A30080000200C04002010040020034A044B70
S31508001A40C943186011600020704700BF1C040020BD
S31508001A50140400200A2970B50E4604462ED003F059
S31508001A605FFC00283FDB236BD3B12268E36A526927
S31508001A70D6542368E26A256B1B69013201359A42FE
S31508001A802563A3EB0505E262B5FA85F504BF0022D6
S31508001A90E2626D0903F064FC002824DB284670BD69
S31508001AA0656B002DE1D131466068FFF77FFE00289F
S31508001AB0F0D101216068FFF78BFED6E70369DB06E4
S31508001AC0CDD50D21FFF7C6FF051EE7DBC7D0236876
S31508001AD0586803F07BF8051EC1DA6BB213F1330FB1
S31508001AE0DCD03133DAD00123E3606FF00405D5E7A3
S31508001AF00449054B002201F11800986319609A60A1
S31508001B001A647047006400082408002070B5064669
S31508001B1003F0BEFC002840D1731E012B36D8234C97
S31508001B20C3EBC30304EBC30403F030FC002837DB24
S31508001B30A5683DB16FF0280503F056FC00282FDB99
S31508001B40284670BD40F211536561A561E56184F8C8
S31508001B5020506562A562E56225636563236103F02B
S31508001B60DFFB002816DB30462146FFF7EDFD012690
S31508001B7002216060FFF72CFEE560A66003F0F0FB2B
S31508001B800028D9DAE6606FF00405D5E76FF011058D
S31508001B90284670BD6FF00405CEE76FF01805CFE74D
S31508001BA00123E3606FF00405CAE700BF240800209C
S31508001BB02DE9F84F81460D46174603F069FC0028C3
S31508001BC04AD109F1FF39B9F1010F35D84FEAC90AE7
S31508001BD0DFF8A0B0AAEB09060BEBC606B368002B24
S31508001BE03ED0F468002C3FD1002F41D00120B046EA
S31508001BF030B1D8F80030586802F0E8FF00280DDB4D
S31508001C0015F8011B3046FFF725FF002810DB0134C5
S31508001C10A742EDD1A0B12046BDE8F88F43B213F133
S31508001C20330F05D0313303D00123F3606FF004007E
S31508001C30002CF0D1BDE8F88F6FF01100BDE8F88FE1
S31508001C40AAEB09095BF83930586802F0EBFE002860
S31508001C50E1DA0123F360DEE76FF01800BDE8F88FDC
S31508001C606FF02800BDE8F88F6FF00400BDE8F88F24
S31508001C703846DFE7240800202DE9F04F83B0824676
S31508001C800F46904603F004FC002840F0B6800AF19F
S31508001C90FF33012B009300F2A680DA00A2EB0309BA
S31508001CA05B4B019203EBC909D9F80830002B00F009
S31508001CB0A780D9F80C50002D40F0A580B8F1000F88
S31508001CC000F0A4804FF0010ACB46BAF1000F06D007
S31508001CD0DBF80030186802F079FF00287CDB03F097
S31508001CE01FFB002861DBDBF80020DBF81430D16825
S31508001CF09268CE5CDBF81C4001339342CBF8143073
S31508001D0008BF002304F1FF3408BFCBF81430DBF812
S31508001D102430CBF81C40B4FA84FA4FEA5A1A13B1A5
S31508001D20B4EB520F2CD903F01BFB00283DDB07F858
S31508001D30016BDBF81030DB0705F1010507D4A84570
S31508001D40C3D1002C3BD1284603B0BDE8F08FDBF8A1
S31508001D500030586802F03AFF002847DB314648460B
S31508001D60FFF778FE0028EEDBE9D1DBF8003058688B
S31508001D7002F058FE0028E2DA0123C9F80C30E2E73F
S31508001D801121D9F80400FFF711FD38B90121D9F856
S31508001D900400FFF71DFD11238BF820300023CBF834
S31508001DA0243003F0DDFA0028C1DA0123C9F80C3023
S31508001DB06FF00400002DC6D103B0BDE8F08F9DE892
S31508001DC00C00A3EB020A124B53F83A30186802F0DB
S31508001DD029FE0028B7DACFE743B213F1330FE9D06B
S31508001DE03133E2D1E6E76FF01100ADE740B210F10A
S31508001DF0330FA8D03130BFD1A5E76FF01800A3E79D
S31508001E006FF02800A0E76FF004009DE740469BE7C7
S31508001E102408002038B504460D4603F039FB80B97E
S31508001E20601E01280AD80B4BC0EBC00003EBC003A9
S31508001E309A684AB1D86850B91D6138BD6FF011006B
S31508001E4038BD6FF0180038BD6FF0280038BD6FF048
S31508001E50040038BD2408002038B590F82010044640
S31508001E6049B9456B0DB9036B63B960680121BDE8D3
S31508001E703840FFF7BFBC4068FFF798FC002384F89A
S31508001E80203038BD0268836A52694068D15CFFF722
S31508001E908DFC2168A36A0A6901339342A362236B06
S31508001EA008BFA5629A4202D0013B236338BD486841
S31508001EB002F020FE0028B7BF0122236B236BE260E5
S31508001EC0F2E700BF38B504464068FFF777FC236998
S31508001ED0DD05C0B20ED5132858D0626B002A38D05B
S31508001EE0112801D0990508D5236B00256563002BB9
S31508001EF037D138BD626B002AF2D12368E1699A6846
S31508001F009142F6D0DA68A369D0542268A369916829
S31508001F1001338B42A36104BF0023A361E369002B4D
S31508001F2037D0226901335205E361E2D5626A002A95
S31508001F30DFD12268926802EB4202B3EB920FD8D344
S31508001F4013216068FFF732FC00282CD00123636256
S31508001F5038BD1128CDD02368E1699A689142D1D15C
S31508001F60C7E72268A36A52696068D15CFFF71EFC5E
S31508001F7018B32168A36A0A6901339342A3621AD087
S31508001F80236B9A421FD0013B236338BD0123636349
S31508001F9038BD106802F0AEFD0028B7BF0122E3691C
S31508001FA0E369E260BDE701216068FFF711FC1323CE
S31508001FB084F82030CAE7A562E2E760680121BDE837
S31508001FC03840FFF705BC486802F094FD0028B7BF03
S31508001FD00122236B236BE260D5E700BF421E012A6C
S31508001FE001D900207047F0B4D700BC1A0E4DE400A2
S31508001FF02E19B068B0B1306BA0B12859B36A4069E0
S31508002000C35C0B702959B36A09690133BA1A8B4242
S3150800201005EBC205B36204BF0023B3622B6B013B19
S3150800202001202B63F0BC70472408002000B583B05C
S3150800203002A9054B01F8010D01221868FFF7B8FD42
S3150800204003B05DF804FB00BF94080020F0B51E4EEF
S315080020501E4D30608BB0FFF759FD01213F20FFF779
S31508002060EDFC32681A4B059202A90122052002925C
S315080020700493FFF701FC0A27002402E0029B0444AC
S315080020804BB902A8FFF762FC0028F7DA8CB90A20D8
S3150800209002F01EFBF0E78CB9294602A8FFF72EFAD4
S315080020A001220DF1070130688DF80770FFF780FDF2
S315080020B0E2E720462946FFF735FAE8E720462946AB
S315080020C0FFF730FAE8E700BF940800202D20000843
S315080020D03064000830B5194C8BB003E09DF8070052
S315080020E000F098F80DF107012068FFF777FF05461D
S315080020F00028F3D102A8FFF729FC041E01DA0BB069
S3150800210030BD0F4A0F4829461546FFF755F904E032
S3150800211002A8FFF71BFC041EF1DB204629460CB17A
S31508002120FFF700FA029B002BF2D002A82946FFF718
S31508002130E5F90A2000F06EF8EAE700BF94080020E7
S31508002140152200085C6400080220FFF711BB00BFD7
S3150800215008B501F097FA02F04DFC02F055FE02F0C0
S315080021607DFF03F0A9F9BDE8084003F0B9B900BF3F
S3150800217008B5002001F0D8F80020FFF761FB002021
S31508002180FFF74AFB0020FFF7CDFA0020BDE808401C
S31508002190FFF7AEBC08B50020FFF79CFF0020BDE89E
S315080021A0084001F0DBB800BF08B500F03BF9024A69
S315080021B0024B12681A6008BD00680008000000207B
S315080021C00268104B9A4200D0704703F59C3370B5ED
S315080021D05A6C0D4842F001025A645B6C86B003F0F3
S315080021E001030093012200234FF44075022401A93C
S315080021F0009E0195029403930493059200F0ACF9AE
S3150800220006B070BD000001400000024008B501F0AC
S3150800221023F9FEE700B585B00D230A288DF80700D7
S315080022208DF80F300AD04FF6FF7301220DF1070122
S31508002230074800F0D9FB05B05DF804FB4FF6FF73BD
S3150800224001220DF10F01024800F0CEFBEBE700BFBB
S315080022509830002000B5002083B000F005F9084C3E
S3150800226000250195019BA34205DC019B01330193DF
S31508002270019BA342F9DD002000F01EF9F1E700BF3B
S31508002280FFFF0F005A4B1A6842F40072F0B51A6045
S315080022901A68584C42F480621A601A6842F48072CE
S315080022A097B01A6000F010F901F0A4F8002000F0C9
S315080022B0DBF8236B504843F001032363236B03F0D9
S315080022C001030493049B236C43F400332364236CB7
S315080022D003F40033042205930725022308A90127DE
S315080022E0089209930B930C95059E0A9700F034F90A
S315080022F0082308A940480C95089300F02DF93F4B90
S315080023003F4A1A604FF4E13500220C2118465D60F9
S3150800231059619A60DA601A619A61DA6100F036FBEF
S31508002320002863D1236B374E43F004032363236BE2
S3150800233003F004030093009B236B43F0800323639D
S31508002340236B03F080030193019B236B43F0010386
S315080023502363236B03F001030293029B236B43F071
S3150800236002032363236B284C054603F00203224825
S3150800237003932A462021039B00F0F8F94FF40052F4
S31508002380224B23480D920DA90E930F9500F0E4F801
S3150800239020230DA918480D930E970F95109500F058
S315080023A0DBF803234FF6FF720DA930460D930E9501
S315080023B00F971095119512951397149515957560A5
S315080023C0B560356175613460F26000F035FF03462B
S315080023D060B906A930460693079300F07FFF28B92F
S315080023E03046182100F090FE17B0F0BDFFF732FF17
S315080023F0003C0240003802400000024098300020AD
S315080024000044004070320020000001400000211006
S315080024100008024000207047014B1868704700BF4B
S31508002420943300200D4B0E481A68002142F0010231
S3150800243010B41A6099601A680A4C22F0847222F461
S3150800244080321A605C601A684FF0006422F48022B9
S315080024501A60D96084605DF8044B70470038024002
S3150800246000ED00E01030002470B5044686B048B987
S315080024700F4B1A6B42F001021A631B6B03F0010340
S315080024800093009B0B4D0123202655F82400029348
S31508002490022201A903930492019600F05DF83146E1
S315080024A055F82400002200F061F906B070BD00BF9F
S315080024B00038024004000020024B202153F8200077
S315080024C000F058B904000020214B224A196CF0B5D7
S315080024D041F0805119641B6C95B003F0805300934A
S315080024E0009B136823F4404343F4004313601368C6
S315080024F003F44043019302221023012700264FF4D8
S31508002500A8750424072107A8DDF804E007920D92B0
S315080025100A970B930F930E9610951194129100F04B
S31508002520C5FA90B9022200230F254FF480541146AC
S3150800253002A80392029504930693059400F066FC9C
S3150800254008B1FFF787FE15B0F0BDFFF783FEE9E790
S3150800255000380240007000402DE9F04FD1F800C065
S31508002560DFF80082DFF800E283B0002503E00135DA
S31508002570102D00F093800123AB4003EA0C0293422E
S31508002580F5D14E6826F0100ABAF1020F00F08980DC
S315080025904FEA45090324D0F800B004FA09F4E443E5
S315080025A006F003070BEA040B07FA09F70AF1FF3AE4
S315080025B047EA0B07BAF1010F076040F29980C7682E
S315080025C08B683C4003FA09F32343C360F300CED576
S315080025D0D8F8443043F48043C8F84430D8F8443037
S315080025E025F0030707F1804703F4804307F59C3776
S315080025F0019305F00303019CD7F808909B000F246C
S315080026009C4029EA040A514CA04200F0848004F553
S315080026108064A04200F081804D4CA04200F0828088
S315080026204C4CA04200F083804B4CA04200F08480C2
S315080026304A4CA04200F08580494CA0420CBF4FF09E
S3150800264006094FF0080909FA03F343EA0A03BB60CF
S31508002650DEF80030D443F70354BF23401343CEF8C3
S315080026600030DEF80430B70354BF23401343CEF8D6
S315080026700430DEF80830F70254BF23401343CEF87F
S315080026800830DEF80C30B60205F1010554BF2340C8
S315080026901343102DCEF80C307FF46DAF03B0BDE8B0
S315080026A0F08F4FEAD50900EB890905F00704D9F838
S315080026B02070A4004FF00F0B0BFA04FB27EA0B0A55
S315080026C00F6907FA04F444EA0A04C9F820404FEAF5
S315080026D045090324D0F800A004FA09F4E44306F0F7
S315080026E0030704EA0A0A07FA09F747EA0A07076026
S315080026F0876807EA040ACF6807FA09F747EA0A0764
S315080027008760D0F804A0C6F300172AEA0303AF408F
S315080027101F43476053E7002397E74FF0010909FA7B
S3150800272003F392E74FF0020909FA03F38DE74FF036
S31508002730030909FA03F388E74FF0040909FA03F3D2
S3150800274083E74FF0050909FA03F37EE70000024024
S3150800275000080240000C024000100240001402402B
S315080027600018024000380240003C014002B9090442
S315080027708161704743695940416170472DE9F041CD
S31508002780046822690746C068F969BB683E697D69BD
S3150800279022F4405202432261E268B869334322F4C4
S315080027A016422B4322F00C020B431343E360636982
S315080027B023F440730343B1F5004F6361584B3AD095
S315080027C09C4200F08A8003F580639C4200F0858075
S315080027D000F06EFC534E7B6800EB800000EB800037
S315080027E09B00B0FBF3F3A6FB03235B091D0100F076
S315080027F05FFC7B6800EB80009B0000EB8000B0FB71
S31508002800F3F800F055FC7B6800EB800000EB8000D5
S315080028109B00B0FBF3F3A6FB03235B09642000FBD4
S3150800282013831B013233A6FB0323C3F343132B4342
S31508002830A360BDE8F0819C422DD003F580639C42DD
S3150800284029D000F035FC374E7B6800EB800000EBA2
S3150800285080005B00B0FBF3F3A6FB03235B091D01B5
S3150800286000F026FC7B6800EB80005B0000EB800034
S31508002870B0FBF3F800F01CFC7B6800EB800000EB73
S3150800288080005B00B0FBF3F3A6FB03235B0964221D
S3150800289002FB1383C5E700F021FC224E7B6800EBA0
S315080028A0800000EB80005B00B0FBF3F3A6FB03237C
S315080028B05B091D0100F012FC7B6800EB80005B00E1
S315080028C000EB8000B0FBF3F800F008FC7B6800EB37
S315080028D0800000EB80005B00D4E700F0FFFB114EA0
S315080028E07B6800EB800000EB80009B00B0FBF3F3F5
S315080028F0A6FB03235B091D0100F0F0FB7B6800EBD8
S3150800290080009B0000EB8000B0FBF3F800F0E6FBCC
S315080029107B6800EB800000EB80009B00B2E700BFFD
S31508002920001001401F85EB51F8B506460D461446C2
S31508002930FFF772FD0746326801E0631C05D113688C
S3150800294035EA0303F9D10020F8BD2CB1FFF764FD81
S31508002950C01B8442EFD23268D36823F08003D36069
S31508002960D36823F02003D360D36823F48073D3603D
S315080029705369012423F0010300215361032086F8DB
S31508002980394086F83810F8BD704700BF50B338B5DF
S3150800299090F83930044603F0FF02F3B122680223A7
S315080029A084F83930D36823F40053D3602046FFF700
S315080029B0E5FE23681A6922F490421A615A6922F0E0
S315080029C02A025A61DA68002142F400520125DA60C7
S315080029D00846E16384F8395038BD80F83820FFF797
S315080029E0D3FFDBE7012070472DE9F0410E4690F84A
S315080029F03910C9B2012904461546984604D0222939
S31508002A0002D00220BDE8F081002E35D0002D33D04B
S31508002A1094F83830012BF4D00023E36394F8393066
S31508002A20A584222B4FF001020CBF3223122384F80F
S31508002A30382084F8393008E0FFF776FF28BB23688A
S31508002A4032785A600136E58CCDB1A768013DB7F5F5
S31508002A50805F42464FF080012046E584ECD1FFF7BF
S31508002A6063FF90B9338821682269C3F308034B6072
S31508002A70002AE7D10236E6E70120BDE8F0814246A2
S31508002A8040212046FFF750FF10B10320BDE8F08132
S31508002A9094F83930322B0CBF2223012384F83930BD
S31508002AA0002384F83830BDE8F08100BFF0B503682C
S31508002AB0DE0783B0044637D5A3498A6802F00C02BC
S31508002AC0042A00F0F1808A6802F00C02082A00F055
S31508002AD0E7809E4B9C4D00221A70FFF79DFC41F241
S31508002AE08836074605E0FFF797FCC01BB04200F2A0
S31508002AF0C6802B689903F6D4944B22791A706368BA
S31508002B00002B00F00D81FFF787FC8F4D074641F239
S31508002B10883605E0FFF780FCC01BB04200F2AF80A4
S31508002B202B689A03F6D523689F072DD5864A9168A0
S31508002B3011F00C0F00F0AA80916801F00C01082929
S31508002B4000F0A080E368002B00F0D980804B7E4D12
S31508002B5001221A60FFF760FC064605E0FFF75CFCF9
S31508002B60801B642800F28B802B689807F6D52968A5
S31508002B70F82292FAA2F22369B2FA82F221F0F80157
S31508002B8093400B432B6023681A0720D4580734D484
S31508002B90A369CBB16C4DAA6802F00C02082A7CD056
S31508002BA0022B6C4B4FF000021A6000F0C980FFF749
S31508002BB033FC2C46054604E0FFF72EFC401B642830
S31508002BC05DD823689B01F7D4002003B0F0BD636984
S31508002BD0002B73D0604B5C4D01221A60FFF71CFC7A
S31508002BE0064604E0FFF718FC801B642847D86B6F7D
S31508002BF09B07F7D523685807CAD5534B574D1A6C08
S31508002C0042F080521A641B6C03F080530193019BB7
S31508002C102B6843F480732B60FFF7FEFB064604E03F
S31508002C20FFF7FAFB801B642829D82B68D905F7D546
S31508002C304B4B454D00221A70FFF7EEFB41F28836E2
S31508002C40074604E0FFF7E8FBC01BB04217D82B6F16
S31508002C509A07F7D4424B227A1A70A368002B00F021
S31508002C60C080FFF7D9FB384D074641F288362B6FEF
S31508002C709B078DD4FFF7D0FBC01BB042F7D90320C2
S31508002C8003B0F0BD526856023FF55CAF2E4A126893
S31508002C90950723D5E268012A20D0012003B0F0BDAC
S31508002CA04A6855027FF515AF274A126890037FF5E3
S31508002CB03BAF6268002A7FF437AFEEE7264A224D1B
S31508002CC01360FFF7A9FB064604E0FFF7A5FB801B88
S31508002CD06428D4D86B6F9F07F7D48BE71A4DF82171
S31508002CE0286891FAA1F12269B1FA81F120F0F80079
S31508002CF08A4002432A601A077FF548AF67E7144AF5
S31508002D00114D1360FFF788FB064604E0FFF784FBC6
S31508002D10801B6428B3D82B689907F7D4236833E750
S31508002D20FFF77AFB084D074641F2883604E0FFF7BD
S31508002D3073FBC01BB042A2D82B689B03F7D4F2E6FC
S31508002D40FFF76AFB064612E00038024002380240E6
S31508002D500000474260004742800E4742007000402C
S31508002D6070380240FFF758FB801B642887D82B6809
S31508002D709901F7D447F6C07696FAA6F64FF440328C
S31508002D80B6FA86F692FAA2F24FF07061B2FA82F0BB
S31508002D9091FAA1F1A26A676AE369D4F820E0E46AC5
S31508002DA0520843EA0E0307FA06F6013A8240B1FAD8
S31508002DB081F1334304FA01F11343124A124C0B43CF
S31508002DC001216B601160FFF727FB054605E0FFF759
S31508002DD023FB401B64283FF652AF23689A01F6D5B9
S31508002DE0F2E6FFF719FB084D074641F288362B6FC6
S31508002DF098077FF5CDAEFFF70FFBC01BB042F6D99B
S31508002E003DE700BF60004742003802407C4A13682D
S31508002E1003F00F038B422DE9F0410C46054609D213
S31508002E20CBB21370136803F00F03994258D00120F0
S31508002E30BDE8F08103689A0706D5724980688A68F2
S31508002E4022F0F00202438A60DF0727D56A68012A62
S31508002E5079D0931E012B6B4B1B6840F2878099072C
S31508002E60E5D5684EB36823F003031343B360FFF751
S31508002E70D3FA6B68012B07467CD0022B00F08880BA
S31508002E80032B65D041F2883804E0FFF7C5FAC01B6A
S31508002E90404565D8B36813F00C0FF6D1584BE2B22B
S31508002EA01A701B6803F00F039C42C0D12B685A079F
S31508002EB006D55449E8688A6822F4E05202438A60D3
S31508002EC01B0707D54F4A2969936823F4604343EAE9
S31508002ED0C10393600F20FFF79DFA0020BDE8F0813B
S31508002EE003689F0706D5474980688A6822F0F0027A
S31508002EF002438A60DE07DAD56A68012A56D0931E2D
S31508002F00012B404B1B682ED9990790D53D4CA368D9
S31508002F1023F003031343A360FFF77EFA6B68012BC4
S31508002F20064648D0022B54D0032B60D041F288378E
S31508002F3004E0FFF771FA801BB84211D8A36813F0B2
S31508002F400C0FF6D1B2E72F4B1B689E0389D46EE7A8
S31508002F5041F28834B368FFF75FFAC01BA042F9D97B
S31508002F600320BDE8F0819801D0D460E798013FF5C9
S31508002F7078AF5CE741F2883804E0FFF74DFAC01BEA
S31508002F804045EDD8B36803F00C03042BF5D185E76B
S31508002F9041F2883804E0FFF73FFAC01B4045DFD806
S31508002FA0B36803F00C03082BF5D177E7154B1B68BC
S31508002FB09C03ABD43BE741F2883704E0FFF72CFAD1
S31508002FC0801BB842CCD8A36803F00C03042BF5D1B8
S31508002FD06CE741F2883704E0FFF71EFA801BB84217
S31508002FE0BED8A36803F00C03082BF5D15EE741F2BF
S31508002FF08835A368FFF710FA801BA842F9D9AFE70E
S31508003000003C024000380240194A936803F00C035A
S31508003010042B2BD0082B27D15168536801F03F01A8
S3150800302013F4800F536847F6C07292FAA2F0B0FA0A
S3150800303080F003EA020323FA00F314BF0D480E4892
S31508003040B0FBF1F000FB03F0094B4FF440325B682C
S3150800305092FAA2F2B2FA82F203F44033D340013371
S315080030605B00B0FBF3F070470348704701487047B0
S315080030700038024000127A000024F40008B5FFF771
S31508003080C3FF084BF0229B6892FAA2F2B2FA82F2C8
S3150800309003F0F003D3400449044ACB5CD8401060DF
S315080030A008BD00BF0038024028690008000000205B
S315080030B008B5FFF7E3FF074B4FF4E0529B6892FA17
S315080030C0A2F2B2FA82F203F4E053D340024AD35C86
S315080030D0D84008BD003802402869000808B5FFF73F
S315080030E0CDFF074B4FF460429B6892FAA2F2B2FA00
S315080030F082F203F46043D340024AD35CD84008BD49
S315080031000038024028690008D1B1042916D003689E
S315080031101A6A22F001021A621A6A42F001021A6257
S315080031201A6A22F010021A621A6A42F010021A6229
S315080031301A6842F001021A60002070470368EFE738
S3150800314003681A6A22F001021A621A6A42F0010238
S315080031501A62EDE7364A0368904270B454D0B0F16B
S31508003160804F30D0A2F57C4290422CD002F5806286
S31508003170904228D002F58062904224D002F5784227
S31508003180904220D002F57052904230D002F580620B
S3150800319090422CD002F58062904228D0A2F598324F
S315080031A0904224D002F58062904220D002F58062D7
S315080031B090421CD08C680A6803600123C46282624C
S315080031C070BC436170474A68CE688D680C6823F006
S315080031D070031343174A23F4407333439042036042
S315080031E0C56284621DD00123436170BC7047CD68F7
S315080031F08C680A6823F440732B4303600123C46276
S31508003200826270BC436170474E68CC688D680A68F4
S3150800321023F07003334323F4407323430360C562EA
S3150800322082620B6903630123436170BC704700BF68
S31508003230000001400004014000284DD0F0B590F888
S31508003240393083B005460C4603F0FF02002B3ED00A
S315080032502946022351F8040B85F83930836823F090
S3150800326007038360FFF776FF2968236988688E69F4
S31508003270A769A268D4F800E026F4407CE6691B0139
S3150800328043EA0623266A0196E6683343019E2CF034
S31508003290030C42EA072242EA0C020F6A43EA0633A3
S315080032A06669646822F47C4244EA061440EA0E0021
S315080032B022F0FC0227F0AA0788602743134301245B
S315080032C000208B610F6285F8394003B0F0BD80F8A5
S315080032D03820FEF775FFBBE70120704790F83830B5
S315080032E0012B1ED002460220136870B482F83900FA
S315080032F05C6824F0700491E860005C6058682843B4
S315080033005860986820F08000986099680024012524
S3150800331031439960204682F8395082F8384070BCAB
S3150800332070470220704700BF084B09481A680949C8
S3150800333010B4094C22F001021A60216001601A6873
S315080033405DF8044B42F005021A60704710E000E091
S3150800335018E000E01F48010014E000E0014B0022DD
S315080033601A60704710E000E0014B1B6800F0F6BCDD
S3150800337010E000E0031F0B2B13D80F4B820853F8FD
S3150800338022301A6800F0030010B4C000FF248440FD
S3150800339001FA00F022EA040108435DF8044B1860BC
S315080033A07047A0F11003542BFAD823F0030303F156
S315080033B0604303F56443E4E7486A0008052810D02B
S315080033C0062808D0042800D07047094A136843F431
S315080033D0803313607047064A136843F480231360EA
S315080033E07047034A136843F400331360704700BFFD
S315080033F024ED00E0124A134B1349144830B4116007
S315080034001968134D134C21F0FF011960196821F44E
S315080034107F411960196821F47F0119602B6823F030
S315080034207F432B60936923F0FF039361936901251A
S3150800343023F47F03002193612560016030BC704747
S3150800344008ED00E018ED00E000000008EC3200206E
S315080034501CED00E0F032002000B583B0044B019368
S31508003460019B0BB1019B984703B05DF804FB00BFB5
S31508003470000000002DE9F041A0F10F03552B88B09C
S3150800348039D802F10F030E2B0CD90222324C334BDA
S3150800349000926946F5220020029403920493FEF7EF
S315080034A0EBF9FEE74FEA50182D4E0F4600F01F05C0
S315080034B056F82830012101FA05F51D4204460DD0BB
S315080034C00F2825D0A0F1100303F01F0E25485B092D
S315080034D001FA0EF140F82310BFF36F8F5142C9B2BB
S315080034E0C1F1100109012046FFF744FFFB0715D477
S315080034F008B0BDE8F0810222174C1B4B00926946C2
S31508003500F4220020029403920493FEF7B5F9FEE72D
S3150800351016490B6823F002030B60DDE756F82830DE
S315080035201D42E5D00F2C0FD0103C63099B0003F118
S31508003530604303F56143012204F01F0402FA04F410
S315080035401C6008B0BDE8F081084A136843F002031E
S31508003550136008B0BDE8F081C8690008186A000859
S315080035608464000880E100E0FC69000810E000E0DF
S315080035702DE9F041044684B0D0F80080066A476A0F
S31508003580EFF3058507490020FDF7DEFF3346C5F34F
S3150800359008020549029400208DE88001FDF7D4FF52
S315080035A0FEF734FE38690008586900082DE9F0412D
S315080035B0044684B0D0F80080066A476AEFF30585AA
S315080035C007490020FDF7C0FF3346C5F30802054941
S315080035D0029400208DE88001FDF7B6FFFEF716FE7F
S315080035E0A86900085869000808B5FEF74BFE00F000
S315080035F0A9FAFEF7ADFDFEF7BBFD024B01221A60E4
S31508003600FCF70AFFD830002008B5EFF31183102B1A
S3150800361002D0102383F31188024B00221A60FCF7AC
S3150800362038FF00BFD830002008B5FEF7B3FDFEF717
S31508003630EDFD00BFF0B40F4A417B0F4D0F4E2F88AA
S3150800364002EBC10432686368436001238B403B4345
S3150800365067680460386060602B8012B1537B9942BA
S3150800366004D2074B30601868F0BC70470020F0BCE5
S31508003670704700BFFC32002080330020F43200205F
S315080036807C3300202E492F482DE9F84F00222E4F73
S315080036902E4E2F4D2F4C304B0A6001213A60326076
S315080036A02A602160016003F180025B601B600833B9
S315080036B09A42FAD1294A2A4BD2F800A000241C8043
S315080036C0BAF1000F39D0274FDFF8A0B0264EDFF841
S315080036D0A09025464FF0010801E0A2452DD057F8E5
S315080036E0043B013B5B010BEB030106EB030E91F870
S315080036F00EC0DEF80C20F3584A736FF3000C5FFA1D
S315080037008CF202F0FD0265F382029B07C1F808E01D
S315080037100D7304F101048A730D61DED5DEF81430E9
S31508003720DEF81020C1F81C901344084681F80C8076
S315080037308B61FFF77FFFA245D1D1BDE8F88F00BFA7
S31508003740883300207C330020F4320020F832002031
S31508003750843300208C330020FC32002004690008E2
S31508003760803300201069000838680008B03100204E
S31508003770A3040008F0B544680368427B2649236021
S31508003780056851F832306C6001EBC2049C4289B07E
S315080037900BD0224A1168884202D0002009B0F0BD39
S315080037A01F491360086809B0F0BD63689C420CD0D5
S315080037B002221C4C1C4B0092694697220020029458
S315080037C003920493FEF758F8FEE7184F134E3B880A
S315080037D03568012404FA02F223EA0203A8423B8070
S315080037E0DBD19BB113F0FF0F06BF1B0A082200228C
S315080037F013F00F0008BFC3F303100D4B034408BFB3
S31508003800043213F8013C1A4451F83230044A336042
S31508003810106809B0F0BD00BFFC320020F432002069
S315080038207C330020586A0008786A00088033002034
S31508003830C06A0008837B81680022027303F0FD03D7
S31508003840C968417362F3820302618373704700BFDC
S3150800385081684A6909690A44012110B4034C017355
S31508003860C46182615DF8044BFFF7E4BEA304000857
S31508003870F0B5037B447B41730246D80789B02DD542
S3150800388092E809004A4D1860166855F834007360C6
S3150800389005EBC403834247D0464E3388DFF830E150
S315080038A005EBC1074FF0010C786850600CFA01F07F
S315080038B0034398B2DEF80030D7F804C017609A427E
S315080038C0CCF800207A60308045D05B7B994209D2DB
S315080038D0394BCEF80020186809B0F0BD03F078031C
S315080038E01F2B02D8002009B0F0BD536959688B68B0
S315080038F01B68DB07F6D550681368036014680B6805
S3150800390060609942547B03D105E01B68994202D056
S31508003910587BA042F9D9596851605968136000204C
S315080039200A605A6009B0F0BD586883420CD002227A
S31508003930224C234B00926946972200200294039258
S315080039400493FDF799FFFEE71A4E01203388A0403D
S3150800395023EA0003A2E78C42C4D8E8B110F0FF0FAF
S3150800396006BF000A08230023164910F00F0408BFF3
S31508003970C0F30314214408BF043311F8011C0B4497
S3150800398055F83330CEF800309A42ABD00A4B1B6854
S31508003990002BA7D00120A6E702220B4C0B4B009266
S315080039A06946AC22029403920493FDF765FFFEE78D
S315080039B0FC320020803300207C330020586A00083F
S315080039C0786A0008C06A0008946A0008B06A0008A5
S315080039D0F4320020194970B551F8302001EBC003C4
S315080039E0934288B01AD01468A3420DD041F83040EB
S315080039F01568134C6B605D68556025685E681360D2
S31508003A00954232605A6002D0002008B070BD0D4B56
S31508003A1051F830201868226008B070BD5A68934281
S31508003A20F2D00222084C094B0092694697220020E0
S31508003A30029403920493FDF71FFFFEE7FC32002071
S31508003A40F43200207C330020586A0008786A00089F
S31508003A502DE9F04FDFF8DC90DFF8DCA0D9F800207C
S31508003A60DAF80060917B10692F4C304FDFF8CC8074
S31508003A70DFF8CCB083B0B6FA86F36FF382015B0940
S31508003A809173019300251AE082F31188BFF36F8FB3
S31508003A900123C8F80030D9F80020DBF80010937B22
S31508003AA000916FF382039373009B21480199CAF82A
S31508003AB000609A42016000D03EB3106960B3156198
S31508003AC025603B6883F31188D9F800309B68DA696A
S31508003AD059689047236863B9EFF311835A1E0F2A72
S31508003AE004D9102282F31188BFF36F8F3B6001233C
S31508003AF02360D8F80030002BCDD12268002AC3D025
S31508003B003B60102383F31188C0E7FCF78BFBD9F8D9
S31508003B10002010690028D2D1937B43F004039373E5
S31508003B2003B0BDE8F08F00BFF0320020EC32002071
S31508003B307C33002088330020843300208C33002017
S31508003B40F432002030B40648064D074C074A0023D5
S31508003B5001212B6023600360116030BC704700BFF1
S31508003B609C330020943300209033002098330020A3
S31508003B701E4B2DE9F041D3F800E04200964530D3BC
S31508003B801B4B1C4ED3F800C00746A1EB0C0815E0EA
S31508003B9056F833401546A4EB0C017C1E884506EB07
S31508003BA0C30306EBC4044FEA45021BD993E8030096
S31508003BB0724584E803000F602F4613D8551C7545D7
S31508003BC002F1FF33E4D856F8334056F83200A4EB36
S31508003BD00C01A0EB0C0088423ABF13460146154675
S31508003BE0DBE707463846BDE8F08100BF9C33002076
S31508003BF0903300205C3100201F4B2DE9F0431C68F0
S31508003C000134012C804689461C6030D96208561E4C
S31508003C101A4D1B4955F83630D1F800E0A3EB0E03D0
S31508003C20A9EB0E0C634507D824E055F83630A3EB0C
S31508003C300E03634510D93A4605EBC60393E803001D
S31508003C40631E570805EBC303012A83E8030007F13F
S31508003C50FF360C601446E8D1531E05EBC30145F840
S31508003C603390C1F80480C8F80020BDE8F0832246E6
S31508003C70024DF1E72246EFE79C3300205C31002035
S31508003C80903300202DE9F843DFF8CC90304DD9F871
S31508003C9000700368013FC9F8007055F83710002F07
S31508003CA04CD0012B3AD95E08741E2A4855F83420A0
S31508003CB0D0F800C0A2EB0C02A1EB0C0890452DD25F
S31508003CC0E200A91803C903F1FF3E05EBCE0E012E4B
S31508003CD08EE803000B6036D09B0803F1FF3E55F8CB
S31508003CE03E10A1EB0C01884508D32EE055F83E108E
S31508003CF0A1EB0C01884523D21346741E05EBCE01B1
S31508003D0003C95A0805EBC404012B84E8030002F131
S31508003D10FF3E0E601E46E9D1002207E01846FFF76F
S31508003D2027FFD9F80070421E0346D20005EBC707E5
S31508003D3097E803002A4482E803000B60BDE8F8838D
S31508003D405A1ED200F2E73346E6E73346EEE700BFEF
S31508003D505C310020903300209C3300202DE9F04789
S31508003D6088B0EFF3148313F002000DD002223A4C08
S31508003D703A4B009269464FF4B272002002940392BD
S31508003D800493FDF779FDFEE7354F3B68002B55D1C7
S31508003D90EFF311835A1E0F2A04D9102282F31188D1
S31508003DA0BFF36F8FDFF8D0800122C8F800303A6081
S31508003DB02C492D4E0A68DFF8C4903368C9F80020EC
S31508003DC0501C0860294D7BB3294C28682168091ABC
S31508003DD0101A814208D927E028682168D9F80020F6
S31508003DE0091A101A81421FD8013B336054F8331060
S31508003DF0D4F804A073B10120FFF7BAFE336804EBC8
S31508003E00C303024693E80300531E04EBC30383E887
S31508003E1003000A60DAF80430DAF8080098473368CD
S31508003E20002BD9D1D9F800202A6000233B60D8F8A6
S31508003E30003083F3118808B0BDE8F0870222064CEB
S31508003E400C4B0092694640F2651202940392049361
S31508003E50FDF712FDFEE700BFD06A0008046B0008F4
S31508003E60F0320020983300209C3300209033002045
S31508003E705C310020F46A0008EC32002094330020FC
S31508003E80EFF314839B0702D46FF01800704770B5E0
S31508003E901F4C2368002B38D1002832DD1D4B1B68C8
S31508003EA0984223DC1C4B013803EB4010EFF31183D7
S31508003EB05A1E0F2A04D9102282F31188BFF36F8F76
S31508003EC0164D01222B602260067B96B1827B12F08A
S31508003ED0010305BF42F0010282736FF02A001846FB
S31508003EE0002323602B6883F3118870BD6FF01100DF
S31508003EF070BDFFF7ADFC0028F2D0FCF793F9304609
S31508003F00EEE7F3D1064B1868D0E76FF0180070BDDE
S31508003F10F032002004690008B0310020EC3200209D
S31508003F2088330020EFF314839B0702D46FF0180040
S31508003F307047194B1A68002AF8D1002828DD174A55
S31508003F401268904221DC164A013802EB401210B47E
S31508003F50EFF31180411E0F2904D9102181F311882E
S31508003F60BFF36F8F0F49012408601C60907B0446DD
S31508003F706FF30004947300F0010000221A600B68C6
S31508003F8083F311885DF8044B70476FF01100704792
S31508003F90FBD1054A1268DAE7F03200200469000806
S31508003FA0B0310020EC32002088330020EFF3148370
S31508003FB0990726D51F4B1A6810B52AB31E4A1168E9
S31508003FC009B1002111601D4A116851B91B6813B166
S31508003FD01B481023016083F31188BFF36F8F0123F9
S31508003FE01360184C184B206801221A60FFF7C2FBB1
S31508003FF02068FFF71FFC2068837BDA0713D4FCF7D9
S3150800400019FA6FF018007047EFF31182511E0F2945
S3150800401004D9102181F31188BFF36F8F0848012155
S3150800402002601960CAE76FF300038373FFF710FC99
S31508004030E5E700BFF0320020843300208C330020EF
S31508004040EC320020883300207C330020EFF3148301
S315080040509B0702D46FF0180070472DE9F041334EE4
S315080040603368002B59D1002853DD314B1B68984221
S315080040704FDC304B304D1B68013844012F199F42E5
S315080040804FD0EFF311835A1E0F2A04D9102282F358
S315080040901188BFF36F8FDFF8A4800122C8F80030BB
S315080040A032602B191B7B4BB96FF028000023336055
S315080040B0D8F8003083F31188BDE8F081D90718D401
S315080040C09A070DD503F078030F2B04D97B682A5974
S315080040D01A602A5953607B69186808B1FFF7D2FD40
S315080040E02C443846FFF7A6FBA37BDB0705D4002044
S315080040F0DCE73846FFF73EFBF2E7A37B6FF30003E6
S315080041003846A373FFF7A4FB0028F0D0FCF78AF81B
S31508004110EDE76FF01100BDE8F0816FF01800BDE81B
S31508004120F0816FF01B00BDE8F08100BFF03200207F
S315080041300469000888330020B0310020EC320020E2
S3150800414038B5EFF314839B0702D46FF0180038BD17
S31508004150204C2368002BF8D1002831DD1E4B1B6844
S31508004160984220DC102931D81C4B013803EB40104B
S31508004170E1B98368D968EFF311835A1E0F2A04D967
S31508004180102282F31188BFF36F8F154D01222B6021
S315080041902260037B63B96FF02800002323602B6835
S315080041A083F3118838BD6FF0110038BD0139E2E795
S315080041B0FFF75EFB0028F0D0FCF734F80020ECE7A8
S315080041C0F1D1102902D8074B1868D1E76FF0100013
S315080041D038BD00BFF032002004690008B031002065
S315080041E0EC32002088330020EFF314839B0702D4B7
S315080041F06FF0180070471A4B1A68002AF8D1002881
S3150800420029DD184A126890421FDC174A013802EB6A
S31508004210401030B4EFF31184621E0F2A04D910221D
S3150800422082F31188BFF36F8F104A012514601D6051
S31508004230047B6CB1407B284408600020002119608B
S31508004240136883F3118830BC70476FF0110070470C
S315080042506FF02800F2E7F8D1054A1068D9E700BFE1
S31508004260F032002004690008B0310020EC3200204A
S3150800427088330020EFF314839B0702D46FF01800ED
S315080042807047F0B51A4C236883B073BB194B1B688B
S315080042905BB3EFF311835A1E0F2A14D8164D012269
S315080042A02B602260154E3068837B13F0020710D00E
S315080042B06FF3410383730020002323602B6883F385
S315080042C0118803B0F0BD102282F31188BFF36F8FF7
S315080042D0E4E70A230373FFF74DFA3368019701AA47
S315080042E05A61FBF79FFF0198E6E76FF01800E8E7C9
S315080042F0F03200207C330020EC3200208833002086
S31508004300EFF314839B0702D46FF01800704730B59B
S315080043101E4C236885B0002B31D11D4B1B6873B327
S31508004320411C2FDBEFF311835A1E0F2A04D91022E2
S3150800433082F31188BFF36F8F164D01222B6022601E
S31508004340154B19688B7B9A0709D468B96FF0310049
S31508004350002323602B6883F3118805B030BD6FF303
S3150800436041038B730020F3E70A2302460B73684662
S3150800437001A901F04DF9FBF755FF0098E8E76FF042
S315080043801800EAE76FF01000E7E700BFF0320020F8
S315080043907C330020EC3200208833002038B5EFF358
S315080043A014839B0702D46FF0180038BD224C23688B
S315080043B0002BF8D100282EDD204B1B6898421FDC05
S315080043C01F4B013803EB4013EFF31182511E0F29DF
S315080043D004D9102181F31188BFF36F8F194D01217C
S315080043E02A6021601A7B72B102F07802082A19D075
S315080043F09A7B12F0020012D142F002029A7304E08C
S315080044006FF0110038BD6FF02800002323602B6879
S3150800441083F3118838BDF3D10B4B1B68D4E76FF0D3
S315080044202A00F2E7184601F029F90028EDD0FBF733
S31508004430F9FE0020E9E700BFF03200200469000811
S31508004440B0310020EC32002088330020EFF31483CB
S315080044509B0702D46FF0180070471C4B1A68002A95
S31508004460F8D100282DDD1A4A1268904223DC194A31
S31508004470013802EB401210B4EFF31180411E0F29E8
S3150800448004D9102181F31188BFF36F8F12490124D3
S3150800449008601C60107B88B1907B04466FF341046A
S315080044A09473C0F3400000221A600B6883F31188E6
S315080044B05DF8044B70476FF0110070476FF02800E5
S315080044C0F1E7F8D1054A1268D5E700BFF0320020B7
S315080044D004690008B0310020EC320020883300203F
S315080044E038B5EFF314839A0702D46FF0180038BD75
S315080044F0194C2368002BF8D1002829DD174B1B68B7
S31508004500984225DC0138EFF311835A1E0F2A11D879
S31508004510134D01222B602260124B03EB4010037BE4
S315080045209B070DD46FF02800002323602B6883F3C4
S31508004530118838BD102282F31188BFF36F8FE7E721
S3150800454001F00EF90028EFD0FBF76CFE0020EBE730
S315080045506FF0110038BD00BFF03200200469000872
S31508004560EC320020B031002038B5EFF314839A07F7
S3150800457002D46FF0180038BD274C2368002BF8D1F9
S3150800458000282EDD254B1B6898421FDC244B254A44
S31508004590013803EB4010EFF31183591E0F2904D994
S315080045A0102181F31188BFF36F8F1F4D01212B60F6
S315080045B02160136898421DD0027B52B1D30720D4DC
S315080045C012F0040311D06FF02A0004E06FF0110016
S315080045D038BD6FF02800002323602B6883F3118809
S315080045E038BDF3D10F4A1068D5E742F004020273CA
S315080045F01846F0E70D4B1B68002BDDD16FF018004D
S31508004600E9E704230373FFF7B5F80028E3D0FBF7BF
S3150800461009FE0020DFE700BFF03200200469000829
S31508004620B031002088330020EC3200207C33002093
S31508004630EFF314839B0702D46FF01800704770B528
S315080046401F4C2368002B37D1002832DD1D4B1B6811
S3150800465098422EDC0138EFF311835A1E0F2A04D92B
S31508004660102282F31188BFF36F8F174D01212B603B
S315080046702160164B03EB40131A7B500707D46FF0E3
S315080046802800002323602B6883F3118870BD12F07D
S31508004690020604D022F004021A730020F1E7184635
S315080046A01973FEF7C7FF0028EBD0FBF7BBFD3046B2
S315080046B0E7E76FF0110070BD6FF0180070BD00BF1E
S315080046C0F032002004690008EC320020B0310020E6
S315080046D0EFF314839B0702D46FF018007047F0B508
S315080046E01F4D2B6885B0002B32D11E4B1B68002B43
S315080046F02ED0002830DBEFF311835A1E0F2A04D977
S31508004700102282F31188BFF36F8F174E0122336090
S3150800471004462A60154F386802230373FFF72AF800
S31508004720134B3A681968C2F814D001AB18462144ED
S31508004730104F039200930297FFF75EFAFBF772FD9C
S31508004740009800232B60336883F3118805B0F0BD09
S315080047506FF0180005B0F0BD6FF0100005B0F0BDA1
S31508004760F03200207C330020EC3200208833002011
S3150800477098330020D956000838B5EFF314839B0701
S3150800478002D46FF0180038BD254C2368002BF8D1E9
S31508004790002830DD234B1B68984226DC00293BD0D5
S315080047A0214B013803EB4010EFF311835A1E0F2AF1
S315080047B004D9102282F31188BFF36F8F1B4D012293
S315080047C02B602260037B9BB18368DB6983B1184A3F
S315080047D00369126819439042016111D00020002331
S315080047E023602B6883F3118838BD6FF0110038BD3C
S315080047F06FF02800F3E7F8D171B10D4B1868D3E7CD
S31508004800807B10F00400EAD00A4B18680028E6D02E
S31508004810FFF71EF90020E2E76FF0100038BD00BF71
S31508004820F032002004690008B0310020EC32002084
S31508004830883300208C330020EFF314839B0702D5BE
S315080048406FF018007047244A1368002BF8D1002827
S315080048503BDD224B1B68984237DC002938D070B400
S315080048600138EFF311835C1E0F2C04D9102484F34E
S315080048701188BFF36F8F1A4C012523601560194BF9
S3150800488003EB4010037B5BB18368DB6943B1164ECB
S31508004890036936681943864201610AD0002001E09F
S315080048A06FF0280000231360236883F3118870BC17
S315080048B07047B07B10F00400F4D00C4B1868002841
S315080048C0F0D00B4B00201D60ECE76FF0110070472D
S315080048D06FF01000704700BFF0320020046900082E
S315080048E0EC320020B0310020883300208C330020C1
S315080048F0F8320020EFF314839B0702D46FF01800F8
S315080049007047134B1A68002AF8D1EFF31182511E2B
S315080049100F2913D80F4901200A6018600E4A126839
S315080049209068C06980B1907B6FF382009073002015
S3150800493000221A600B6883F311887047102181F3EF
S315080049401188BFF36F8FE5E76FF02800F0E700BF27
S31508004950F0320020EC3200208833002038B5EFF31F
S3150800496014839B0702D46FF0180038BD164C2368D1
S31508004970002BF8D1EFF311835A1E0F2A17D8134DBF
S3150800498001222B602260124B1B689A68D269C2B159
S315080049909A7B186942F004029A7310B10D4B186895
S315080049A058B9002323602B6883F3118838BD102279
S315080049B082F31188BFF36F8FE1E7FFF749F800200C
S315080049C0EFE76FF02800ECE7F0320020EC32002029
S315080049D0883300208C330020054B1B682BB1987B4D
S315080049E080F00400C0F3800070470120704700BFC4
S315080049F088330020084B186868B1084B084A03EB4F
S31508004A00001051689A60D9605B601B60103383425E
S31508004A1002F10C02F5D17047006900081C3100202C
S31508004A2008680008EFF314839B0702D46FF0180098
S31508004A30704770B5294C236888B06BBB00282EDDFB
S31508004A40274B1B6898422ADC431EEFF31182511E3E
S31508004A500F2917D8234D01212A60216022491B01FD
S31508004A605A18585882421DD006685E5003685A6024
S31508004A7000F004FE60B9002323602B6883F31188D5
S31508004A8008B070BD102181F31188BFF36F8FE1E77D
S31508004A90FBF7C8FB0020EEE76FF01800F0E76FF0B1
S31508004AA01100EDE753689A420CD002220F4C104BC6
S31508004AB00092694697220020029403920493FCF719
S31508004AC0DBFEFEE79168D36889688B4203D201331F
S31508004AD0D3600020CFE76FF02A00CCE7F032002041
S31508004AE000690008EC3200201C310020586A0008D2
S31508004AF0786A0008EFF314839B0729D4F0B52C4C89
S31508004B00236889B0002B4CD100284DDD294B1B6842
S31508004B10984249DC431EEFF31182511E0F291AD819
S31508004B20254D01262A60266024491B015A18585823
S31508004B3082421AD007685F5003685A6000F09EFDEB
S31508004B4078B9002323602B6883F3118809B0F0BD78
S31508004B506FF018007047102181F31188BFF36F8F2B
S31508004B60DEE7174B00201E60EBE753689A420CD02D
S31508004B700222144C144B0092694697220020029494
S31508004B8003920493FCF778FEFEE79168D368896878
S31508004B908B4203D20133D3600020D2E76FF02A009C
S31508004BA0CFE76FF01800D1E76FF01100CEE700BF2E
S31508004BB0F032002000690008EC3200201C31002089
S31508004BC0F8320020586A0008786A0008EFF3148360
S31508004BD09B0702D46FF01800704730B51E4C236847
S31508004BE083B0002B32D11D4B1B687BB3002830DD08
S31508004BF01B4B1B6898422CDC0138EFF311835A1EB5
S31508004C000F2A12D8174D01222B602260164B03EB90
S31508004C100010C3687BB1013BC360002000232360FA
S31508004C202B6883F3118803B030BD102282F31188F4
S31508004C30BFF36F8FE6E70D4B1B6822221A7369468E
S31508004C4000F0C6FDFBF7EEFA0098E7E76FF01800EC
S31508004C50E9E76FF01100E6E7F03200207C33002028
S31508004C6000690008EC3200201C310020883300203F
S31508004C70EFF314839B0702D46FF0180070470F4BAD
S31508004C801A68002AF8D110B4EFF311814A1E0F2AC8
S31508004C9004D9102282F31188BFF36F8F084A0124C2
S31508004CA011601C60074909680160002018601368D4
S31508004CB083F311885DF8044B704700BFF03200207B
S31508004CC0EC32002094330020F0B4EFF31183102B5C
S31508004CD029D01B4C1022236082F31188194B1A4DD8
S31508004CE01A681A492D681A4E1F683668236805F02F
S31508004CF080658C1AC91B83F311884FF47A7303FBFA
S31508004D0006F30DB1A14201D2A3F57A734FF47A7274
S31508004D10104902FB04F2A1FB021203EB9233036073
S31508004D20F0BC00207047074B074C1A6807492568EE
S31508004D30074C1B68266805F080658C1AC91ADCE7DB
S31508004D40DC30002018E000E004ED00E02048010017
S31508004D509833002009A4EE3101688268274B2DE9B3
S31508004D60F041CC68264D036114440746406121464C
S31508004D700C30FEF741FF2B68BC6073BBEFF3118460
S31508004D80204EE4B23CB3C4F307184FEA0814E4B261
S31508004D90A8F1100800232B60336883F311883B6859
S31508004DA09A68586890472B683BB9EFF311835A1EE7
S31508004DB00F2A16D8012233602A602B68B8F1000F33
S31508004DC008BF00249BB13460102383F31188BFF316
S31508004DD06F8FBDE8F081A046DCE70A4E3468E4B27E
S31508004DE0D0E7102282F31188BFF36F8FE2E784F3CE
S31508004DF01188BFF36F8FBDE8F08100BF594D0008D9
S31508004E00F0320020EC3200202DE9F047DFF86490FC
S31508004E10D9F800303BB3154D154CDFF85C800026F9
S31508004E2001270AE044F8083CD9F800300136B342B5
S31508004E3005F1140504F1180415D92B6844F80C5C1F
S31508004E4013F00203EED0D5F810A044F8087CA4F1BC
S31508004E500C0351462046C4F80480A360FEF7CCFE36
S31508004E6044F804ACE0E7BDE8F08700BFA06400089A
S31508004E7010310020FC680008594D0008EFF3148330
S31508004E809B0702D46FF0180070472DE9F0472A4FA8
S31508004E903B68002B4BD1002845DD284B1B68984200
S31508004EA041DC461E7400A019DFF89C80C00008EBA0
S31508004EB0000AEFF311835A1E0F2A27D8DFF88C90C1
S31508004EC00121C9F800303960A21908EBC2020C307A
S31508004ED053680BBB404451603444E400184A58F800
S31508004EE0043012681D69174BCAF814A015444444C7
S31508004EF02946CAF81030FEF77FFEA5600020386004
S31508004F00D9F8003083F31188BDE8F087102282F3C0
S31508004F101188BFF36F8FD1E708EB00052846FEF727
S31508004F20B1FE2846D8E76FF01100BDE8F0876FF0AC
S31508004F301800BDE8F08700BFF0320020FC680008C2
S31508004F4098330020594D000804310020EC32002027
S31508004F5038B5EFF314839B0702D46FF0180038BDF9
S31508004F60184C2368002BF8D1002827DD164B1B6840
S31508004F70984223DC0138EFF311835A1E0F2A10D802
S31508004F80124D01222B602260114A00EB4000C0003E
S31508004F901318596859B9002020602B6883F31188C3
S31508004FA038BD102282F31188BFF36F8FE8E70C3003
S31508004FB0104400225A60FEF765FEECE76FF0110018
S31508004FC038BD00BFF0320020FC680008EC32002033
S31508004FD004310020F8B51F4E33680022426053BBE7
S31508004FE0EFF311841C4DE4B21CB3C4F307173C015C
S31508004FF0E4B2103F002333602B6883F311880368FB
S315080050009A685868904733683BB9EFF311835A1E7C
S315080050100F2A14D801222B6032603368002F08BF8C
S31508005020002493B12C60102383F31188BFF36F8F8C
S31508005030F8BD2746DEE7084D2C68E4B2D4E710220F
S3150800504082F31188BFF36F8FE4E784F31188BFF307
S315080050506F8FF8BDF0320020EC320020084B19683B
S3150800506069B1084B084A01EB810103EB8101002075
S315080050701A60586014338B4202F10C02F8D170475B
S31508005080F86800089C310020786400082DE9F84F7C
S31508005090EFF314839B0703D46FF01800BDE8F88F6D
S315080050A0274F3B68002BF7D1002841DD254B1B68AD
S315080050B098423DDC00293FDB441EA6003019224DEC
S315080050C0800005EB0009EFF311835A1E0F2A22D838
S315080050D0DFF880808A460121C8F800303960321925
S315080050E005EB820208305368DBB928445160174A39
S315080050F033191168164A05EB83035144C3F8109017
S31508005100DA60FEF779FD00203860D8F8003083F3BE
S315080051101188BDE8F88F102282F31188BFF36F8FCC
S31508005120D6E705EB000B5846FEF7ACFD5846DEE71A
S315080051306FF01100BDE8F88F6FF01000BDE8F88F2A
S31508005140F0320020F86800089C31002098330020CF
S31508005150D54F0008EC32002038B5EFF314839B07CF
S3150800516002D46FF0180038BD184C2368002BF8D10C
S31508005170002827DD164B1B68984223DC0138EFF31D
S3150800518011835A1E0F2A10D8124D01222B60226055
S31508005190114A00EB800080001318596859B900209D
S315080051A020602B6883F3118838BD102282F311889A
S315080051B0BFF36F8FE8E70830104400225A60FEF705
S315080051C061FDECE76FF0110038BD00BFF03200203A
S315080051D0F8680008EC3200209C31002038B5EFF35F
S315080051E014839B0702D46FF0180038BD154C23684A
S315080051F0002BF8D1102822D8EFF311835A1E0F2A54
S3150800520004D9102282F31188BFF36F8F0E4D012245
S315080052102B60226048B10138FEF7DCFB60B900203C
S3150800522020602B6883F3118838BD084B1B68587BB0
S31508005230FEF7D0FB0028F2D0FAF7F4FFEFE76FF09D
S31508005240100038BDF0320020EC32002088330020F0
S31508005250EFF314839B071FD470B5144C2368F3B976
S3150800526001380F281ED8EFF311835A1E0F2A04D9C6
S31508005270102282F31188BFF36F8F0D4D01262B6024
S315080052802660FEF7A7FB08B10A4B1E6000202060C7
S315080052902B6883F3118870BD6FF0180070476FF0A4
S315080052A0180070BD6FF0100070BD00BFF03200200E
S315080052B0EC320020F8320020EFF314839B0702D566
S315080052C06FF018007047124A1368002BF8D110B413
S315080052D0EFF31183591E0F2913D80E4901240B60C9
S315080052E014600D4B1B681BB10C4C1B1B5B11013367
S315080052F00360002010600B6883F311885DF8044B87
S315080053007047102181F31188BFF36F8FE5E700BF5F
S31508005310F0320020EC32002088330020B031002023
S31508005320EFF314839B0702D46FF0180070470A4BFB
S315080053301A687AB9EFF31182511E0F2904D9102180
S3150800534081F31188BFF36F8F044801210260196049
S315080053500020704700207047F0320020EC32002011
S31508005360EFF314839B0702D46FF018007047054BC0
S31508005370186830B10020044A1860136883F311884E
S3150800538070477047F0320020EC320020EFF31483A8
S315080053909B0702D46FF0180070470F4B1A68002A53
S315080053A0F8D110B4EFF31180421E0F2A04D9102247
S315080053B082F31188BFF36F8F084A012110601960C4
S315080053C00748084C0160002020601860136883F3C2
S315080053D011885DF8044B7047F0320020EC3200204B
S315080053E0843300207C33002038B5EFF314839B0701
S315080053F002D46FF0180038BD134C2368002BF8D17F
S31508005400EFF311835A1E0F2A04D9102282F311884A
S31508005410BFF36F8F0D4D01222B6022600C4B0D4997
S315080054201B68002008604BB10B490C4B09681B68C8
S315080054300B489942026001D0FAF7F4FE002020607A
S315080054402B6883F3118838BDF0320020EC32002037
S315080054508C3300208433002088330020F432002067
S315080054607C330020EFF3148080F00200C0F3400084
S31508005470704700BF024B1868003018BF01207047FC
S31508005480F0320020014B1868704700BF84330020B3
S31508005490EFF314839B0708D5054B1B682BB9054BFF
S315080054A01868B0FA80F0400970470120704700BFBD
S315080054B0F03200207C330020074B70B51E6856B1C9
S315080054C0064C0025A268616854F80C0B0135FDF7F7
S315080054D0D1FFB542F6D170BD0C690008E86700082F
S315080054E0F8B5074B1E6856B10024064F25463859AD
S315080054F00135FDF763FFB54204F10C04F7D1F8BD99
S315080055000869000848660008094B1B6823B1436808
